:100000000C942A000C9434000C9434000C943400AA
:100010000C9434000C9434000C9434000C94340090
:100020000C9434000C9434000C9434000C94340080
:100030000C9434000C9434000C9434000C94340070
:100040000C9434000C9434000C9434000C94340060
:100050000C94340011241FBECFE5D8E0DEBFCDBF25
:100060000E9458000C9466000C94000090B3282F56
:1000700030E0892F90E0809590952823392381E006
:1000800090E0232B11F480E090E00895959A87E8A2
:1000900093E10197F1F700C00000089582B3807CDE
:1000A00082BB87E893E10197F1F700C00000089553
:1000B0008D9A88E00E943600892B21F080E20E9410
:1000C0004600F7CF80E20E944E00F3CFF894FFCFB6
:00000001FF
